:1000000045C0000023C1000060C000005EC00000C9
:100010005CC000005AC0000058C0000056C000007C
:1000200054C0000052C0000050C000004EC000008C
:100030004CC000000C94E00948C0000046C000001D
:1000400044C0000042C0000040C000003EC00000AC
:100050003CC000003AC0000038C0000036C00000BC
:1000600034C0000032C0000030C000002EC00000CC
:100070002CC000002AC0000028C0000026C00000DC
:1000800024C0000022C0000020C0000011241FBEB8
:10009000CFEFD0E4DEBFCDBF12E0A0E0B1E0EEEBE9
:1000A000F8E100E00BBF02C007900D92AC3FB10732
:1000B000D9F723E0ACEFB2E001C01D92AA34B20739
:1000C000E1F70E9411090C945D0C9ACFCF93DF9356
:1000D000FC01DB0121813281E9018A819B81139638
:1000E0009C938E9312978181928115969C938E9307
:1000F00014978A819B81EC017D836C83E9017B836A
:100100006A83728361831996FC93EE9318978081BA
:100110008F5F8083DF91CF910895FC01A281B3812D
:100120008481958115969C938E931497A481B581B3
:100130008281938113969C938E931297A085B185AB
:1001400011968D919C9112978E179F0731F484819F
:10015000958112969C938E931197118610868C919F
:1001600081508C930895181619069CF440E050E0D5
:1001700077E063E00BC00000215031092115310503
:10018000D1F74F5F5F4F4817590719F0272F362FC8
:10019000F2CF08952A9882B9299A0000299882E01E
:1001A00090E0E1CF089581E0F5CF089584E690E0F6
:1001B000DADF88E3EFDF86E0EDDF8FE0EBDF81E081
:1001C000E9DF8AE090E0CFCF08952A9A82B9299A90
:1001D0000000299881E090E0C6CF0895813118F49D
:1001E0008158D8CF08958155D5CF08951F93CF93C7
:1001F000DF93FB019081992359F0EB0111E0180F77
:10020000EDDF8991E2DF8881882311F0812FF6CF1D
:10021000DF91CF911F9108950F931F93CF93DF9399
:10022000182FEB01C0DF8881882359F001E0010F0E
:10023000812FD4DF8991C9DF8881882311F0102FA5
:10024000F5CFDF91CF911F910F9108951F920F92DB
:100250000FB60F9211240BB60F928F939F93EF93CB
:10026000FF938091000390910103019789F410920C
:100270008100E4E8F0E0808191819093FF02809317
:10028000FE021182108210920103109200030BC033
:10029000E1E8F0E080818160808381E090E09093EC
:1002A000010380930003FF91EF919F918F910F9035
:1002B0000BBE0F900FBE0F901F9018955B9A83E0B6
:1002C0008A95F1F700005B986091FE027091FF0241
:1002D000882777FD8095982F0E949E0B20E030E0C4
:1002E00048E652E40E94030B0E946B0BDC01CB0139
:1002F0009093FD028093FC024AE067E373E00E9462
:100300002A0C8091FC029091FD020A973CF4E7E3ED
:10031000F3E0808190E390838183128267E373E04E
:100320008DE164DF66E071E08FE160DF84E18A9552
:10033000F1F708955B9A83E08A95F1F700005B98E6
:100340006091FE027091FF02882777FD8095982FBB
:100350000E949E0B20E030E048E652E40E94030B2E
:100360000E946B0B7093FD026093FC0284E18A95FE
:10037000F1F78091FC029091FD020895E9E6F0E02A
:10038000808181608083E89A789408958FEE88B99F
:100390000000309B29C0319B29C0329B29C0339B70
:1003A00029C08FED88B90000309B26C0319B26C044
:1003B000329B26C0339B26C08FEB88B90000309B50
:1003C00023C0319B23C0329B23C0339B23C08FE7C4
:1003D00088B90000309B20C0319B20C0329B20C0D8
:1003E000339920C084E4089581E3089584E3089557
:1003F00087E308958AE2089582E3089585E30895E6
:1004000088E3089580E3089583E3089586E30895DB
:1004100089E3089583E2089581E4089582E40895CC
:1004200083E4089580E0089520E030E070E890E0F3
:100430007BB95BB14BB14F7B4BB9452B4BB96BB122
:10044000AC01022E02C0559547950A94E2F741701F
:10045000462B4BB95E9A2F5F3F4F2830310541F74D
:1004600080E28BB91BB8089520E030E070E890E09E
:1004700075B955B145B14F7B45B9452B45B965B106
:10048000AC01022E02C0559547950A94E2F74170DF
:10049000462B45B92E9A2F5F3F4F2830310541F743
:1004A00080E285B915B808952F923F924F925F92DE
:1004B0006F927F928F929F92AF92BF92CF92DF9274
:1004C000EF92FF920F931F93CF93DF9300D000D052
:1004D000CDB7DEB76C01362E2DDF209102013091B1
:1004E0000301821B930B9093340380933303C11455
:1004F000D10409F4A0C2E12CF12C612C712C00E094
:1005000010E01C821B82C982DA82412C512C0F2EF2
:10051000F8E4AF2EF3E0BF2EF02D0F2EF5E38F2E73
:10052000F3E09F2EF02D6894222427F82FDF80938C
:1005300047038A3211F469807A8035B8FBDE209156
:10054000000130910101A901481B590BCA015093C8
:100550000301409302012091330330913403421789
:10056000530749F05093340340933303042D152D62
:100570004B825C820DC0EB81FC81329724F4023007
:10058000110524F405C04B825C8202C04B825C8260
:100590001816190664F02FEFF5012083E9E4F3E063
:1005A0002083F4011082E6E3F3E01082FFC184307F
:1005B000910564F42FEEF5012083E9E4F3E0208354
:1005C000F4012082E6E3F3E02082F0C18630910559
:1005D0006CF42FEEF5012083E9E4F3E0208320ECB6
:1005E000F4012083E6E3F3E02083E0C18830910545
:1005F0006CF42FEEF5012083E9E4F3E0208320EE94
:10060000F4012083E6E3F3E02083D0C18930910533
:100610006CF42FEEF5012083E9E4F3E0208320EF72
:10062000F4012083E6E3F3E02083C0C18A30910522
:100630006CF42FEEF5012083E9E4F3E0208328EF4A
:10064000F4012083E6E3F3E02083B0C18B30910511
:100650006CF42FEEF5012083E9E4F3E0208328EF2A
:10066000F4012083E6E3F3E02083A0C18C30910500
:100670006CF42FEEF5012083E9E4F3E020832CEF06
:10068000F4012083E6E3F3E0208390C18D309105EF
:100690006CF42FEEF5012083E9E4F3E020832EEFE4
:1006A000F4012083E6E3F3E0208380C18E309105DE
:1006B0006CF48FEEF5018083E9E4F3E080832FEFA3
:1006C000F4012083E6E3F3E0208382C18F309105BB
:1006D00074F42FEEF501208327EFE9E4F3E02083A3
:1006E0002FEFF4012083E6E3F3E0208262C1803142
:1006F00091057CF42FEEF501208327EFE9E4F3E088
:1007000020832FEFF401208320ECE6E3F3E0208345
:1007100050C1813191057CF42FEEF501208327EF44
:10072000E9E4F3E020832FEFF401208320EEE6E3F9
:10073000F3E020833EC1823191057CF42FEEF50178
:10074000208327EFE9E4F3E020832FEFF4012083F7
:1007500020EFE6E3F3E020832CC1833191057CF4A4
:100760002FEEF501208327EFE9E4F3E020832FEF5C
:10077000F40120832CEFE6E3F3E020831AC18431F7
:1007800091057CF42FEEF501208327EFE9E4F3E0F7
:1007900020832FEFF40120832EEFE6E3F3E02083A4
:1007A00008C1853191056CF427EEF5012083E9E459
:1007B000F3E020832FEFF4012083E6E3F3E02083CE
:1007C000F8C0863191057CF427EEF50120832BEFEC
:1007D000E9E4F3E020832FEFF401208320ECE6E34B
:1007E000F3E02083E6C0873191057CF427EEF50124
:1007F00020832BEFE9E4F3E020832FEFF401208343
:1008000020EFE6E3F3E02083D4C0883191057CF447
:1008100027EEF50120832BEFE9E4F3E020832FEFAF
:10082000F40120832CEFE6E3F3E02083C2C089319A
:1008300091056CF423EEF5012083E9E4F3E02083D5
:100840002FEFF4012083E6E3F3E02083B2C08A3186
:1008500091057CF423EEF50120832DEFE9E4F3E02C
:1008600020832FEFF401208320ECE6E3F3E02083E4
:10087000A0C08B3191057CF423EEF50120832DEF90
:10088000E9E4F3E020832FEFF401208320EFE6E397
:10089000F3E020838EC08C3191057CF423EEF501CA
:1008A00020832DEFE9E4F3E020832FEFF401208390
:1008B0002CEFE6E3F3E020837CC08D3191057CF4DE
:1008C00023EEF50120832DEFE9E4F3E020832FEF01
:1008D000F40120832EEFE6E3F3E020836AC08E313B
:1008E00091056CF421EEF5012083E9E4F3E0208327
:1008F0002FEFF4012083E6E3F3E020835AC08F3129
:10090000910574F421EEF50120832EEFE9E4F3E084
:1009100020832FEFF4012083E6E3F3E0208249C037
:10092000803291057CF421EEF50120832EEFE9E47D
:10093000F3E020832FEFF401208320ECE6E3F3E0E3
:10094000208337C0813291057CF421EEF5012083AC
:100950002EEFE9E4F3E020832FEFF401208320EF72
:10096000E6E3F3E0208325C0823291057CF421EE9A
:10097000F50120832EEFE9E4F3E020832FEFF4016B
:1009800020832CEFE6E3F3E0208313C0853291054A
:100990000CF04EC0F5011082E9E4F3E010822FEF75
:1009A000F4012083E6E3F3E0208303C08E30910559
:1009B0007CF08F30910561F09C0123513109223088
:1009C000310530F08931910519F08197049738F499
:1009D000F501808129DDF401808146DD0BC0EB81CA
:1009E000FC81E85BFC4F80811FDDF801EB5CFC4F74
:1009F00080813ADDFAE0CF16D10419F02FEFE21A28
:100A0000F20A4B815C814F5F5F4F5C834B830F5FCA
:100A10001F4F50EDE51657E0F50629F48FEF681AE1
:100A2000780AE42CF52CC614D70409F07FCD03C056
:100A300069807A80BECF0F900F900F900F90DF915A
:100A4000CF911F910F91FF90EF90DF90CF90BF90CB
:100A5000AF909F908F907F906F905F904F903F905E
:100A60002F9008952F923F924F925F926F927F92B4
:100A70008F929F92AF92BF92CF92DF92EF92FF92AE
:100A80000F931F93CF93DF934C01562E53DC20918D
:100A9000020130910301821B930B909334038093E6
:100AA0003303EE24E394F12C00E010E0C0E0D0E04A
:100AB000612C712C0F2EF8E4AF2EF3E0BF2EF02D39
:100AC0000F2EF5E3CF2EF3E0DF2EF02D0F2EF6E301
:100AD0002F2EF3E03F2EF02D6894442447F856DC87
:100AE000809347038A3211F4E62CF72C55B822DCA8
:100AF0002091000130910101A901481B590BCA0145
:100B000050930301409302018416950614F0E62CDD
:100B1000F72C20913303309134038217930749F067
:100B20009093340380933303062D172DC02FD72DB8
:100B30000CC0C230D10524F40230110524F405C0E4
:100B4000C62DD72D02C0C62DD72D181619065CF05C
:100B50002FEFF5012083E9E4F3E02083F601108212
:100B6000F1011082E0C1843091055CF42FEEF501B3
:100B70002083E9E4F3E02083F6014082F101408222
:100B8000D2C18630910564F42FEEF5012083E9E4AB
:100B9000F3E0208320ECF6012083F1012083C3C120
:100BA0008830910564F42FEEF5012083E9E4F3E049
:100BB000208320EEF6012083F1012083B4C1893027
:100BC000910564F42FEEF5012083E9E4F3E020833E
:100BD00020EFF6012083F1012083A5C18A30910521
:100BE00064F42FEEF5012083E9E4F3E0208328EF9D
:100BF000F6012083F101208396C18B30910564F4C6
:100C00002FEEF5012083E9E4F3E0208328EFF601DD
:100C10002083F101208387C18C30910564F42FEE8D
:100C2000F5012083E9E4F3E020832CEFF601208333
:100C3000F101208378C18D30910564F42FEEF50128
:100C40002083E9E4F3E020832EEFF6012083F10115
:100C5000208369C18E30910564F48FEEF5018083A5
:100C6000E9E4F3E080832FEFF6012083F101208394
:100C70006CC18F3091056CF42FEEF501208327EFC6
:100C8000E9E4F3E020832FEFF6012083F1014082B5
:100C90004DC18031910574F42FEEF501208327EFCB
:100CA000E9E4F3E020832FEFF601208320ECF1014B
:100CB00020833CC18131910574F42FEEF50120832E
:100CC00027EFE9E4F3E020832FEFF601208320EE05
:100CD000F10120832BC18231910574F42FEEF501CF
:100CE000208327EFE9E4F3E020832FEFF601208350
:100CF00020EFF10120831AC18331910574F42FEEA6
:100D0000F501208327EFE9E4F3E020832FEFF601DC
:100D100020832CEFF101208309C18431910574F403
:100D20002FEEF501208327EFE9E4F3E020832FEF96
:100D3000F60120832EEFF1012083F8C08531910563
:100D400064F427EEF5012083E9E4F3E020832FEF3C
:100D5000F6012083F1012083E9C08631910574F406
:100D600027EEF50120832BEFE9E4F3E020832FEF5A
:100D7000F601208320ECF1012083D8C08731910552
:100D800074F427EEF50120832BEFE9E4F3E02083F0
:100D90002FEFF601208320EFF1012083C7C08831B7
:100DA000910574F427EEF50120832BEFE9E4F3E0DD
:100DB00020832FEFF60120832CEFF1012083B6C0B2
:100DC0008931910564F423EEF5012083E9E4F3E031
:100DD00020832FEFF6012083F1012083A7C08A3101
:100DE000910574F423EEF50120832DEFE9E4F3E09F
:100DF00020832FEFF601208320ECF101208396C0A1
:100E00008B31910574F423EEF50120832DEFE9E495
:100E1000F3E020832FEFF601208320EFF101208300
:100E200085C08C31910574F423EEF50120832DEFFC
:100E3000E9E4F3E020832FEFF60120832CEFF101AA
:100E4000208374C08D31910574F423EEF501208365
:100E50002DEFE9E4F3E020832FEFF60120832EEF5E
:100E6000F101208363C08E31910564F421EEF50118
:100E70002083E9E4F3E020832FEFF6012083F101E2
:100E8000208354C08F3191056CF421EEF50120834D
:100E90002EEFE9E4F3E020832FEFF6012083F10148
:100EA000408244C08032910574F421EEF501208324
:100EB0002EEFE9E4F3E020832FEFF601208320EC0E
:100EC000F101208333C08132910574F421EEF501E4
:100ED00020832EEFE9E4F3E020832FEFF601208357
:100EE00020EFF101208322C08232910574F421EEBB
:100EF000F50120832EEFE9E4F3E020832FEFF601E4
:100F000020832CEFF101208311C085329105B4F5C7
:100F1000F5011082E9E4F3E010822FEFF60120835F
:100F2000F101208303C08E3091057CF08F30910554
:100F300061F09C01235131092230310530F08931B3
:100F4000910519F08197049738F4F50180816CDAE6
:100F5000F601808189DA0AC0FE01E85BFC4F8081DE
:100F600063DAF801EB5CFC4F80817EDA21960F5F3B
:100F70001F4FE114F10409F0B2CD03C0E62CF72CA9
:100F8000D5CFDF91CF911F910F91FF90EF90DF9020
:100F9000CF90BF90AF909F908F907F906F905F9019
:100FA0004F903F902F90089569E071E081E01ED945
:100FB000EDD9813341F4F7D866E271E081E016D9CA
:100FC00082E090E013C0823341F4EDD866E471E032
:100FD00081E00CD984E090E009C0833329F7E3D89D
:100FE00066E671E081E002D98AE090E068E070E0B6
:100FF0005BDAD9D815B8089566E871E081E0F6D8D3
:10100000C5D9843341F4CFD863EA71E081E0EED8EA
:1010100081E090E013C0853341F4C5D863EC71E002
:1010200081E0E4D882E090E009C0863329F7BBD89C
:1010300063EE71E081E0DAD883E090E060E170E097
:1010400033DAB1D815B80895CF92DF92EF92FF92BC
:101050000F931F93CF93DF9300D01F92CDB7DEB7CE
:1010600081E090E0E12CF12CCC24C394D12C892B8D
:1010700021F063E072E081E0B9D888D9803309F4C7
:1010800064C0813309F464C0823309F465C08333DA
:1010900009F467C08453863088F485D863E272E02F
:1010A00081E0A4D82FEB84ED91E021508040904066
:1010B000E1F700C000008C2D9D2DD9CF8E2D9F2DE6
:1010C000D6CF20E3F21609F45EC081E3F81609F4E6
:1010D0005DC092E3F91609F45CC023E3F21609F44B
:1010E0005BC084E3F81609F45AC095E3F91609F4D5
:1010F00059C026E3F21609F458C08AE2F81202C079
:1011000052D855C089EC8F0D833008F07BC04BD886
:101110006DE372E081E06AD89FEB24ED81E09150AD
:1011200020408040E1F700C000003DD840C02ED9EB
:10113000F82E67E572E081E059D891E4F91609F4D8
:101140004DC022E4F212F3CF4CC0E12CD12C0EC0E2
:10115000EE24E394D12C0AC06894EE24E1F8D12C5B
:1011600005C00F2EF3E0EF2EF02DD12C8FE493EC81
:101170000197F1F700C0000009D9F82E66E772E088
:1011800081E034D89ECF00E010E011C001E010E013
:101190000EC002E010E00BC003E010E008C004E065
:1011A00010E005C005E010E002C006E010E080E3BA
:1011B0008E0D898380E3800F8A831C8267E972E049
:1011C00081E02AD8BE016F5F7F4F81E10FD888EEA2
:1011D00093E00E94B3000E94D300A9CF68E070E0C2
:1011E00002C060E170E08E2D9D2D880F991F9C013B
:1011F000220F331F220F331F820F931F800F911F67
:1012000031DC03C0C3D8F82E5CCF0F900F900F9045
:10121000DF91CF911F910F91FF90EF90DF90CF90D2
:1012200008958FEF81B984B98BEF8AB980EF87B9C0
:101230008FE088B90E94D60082E390E00E94B3005C
:101240009DD869EA72E081E00E940C0188EC90E090
:101250000E94B3000E94D30010928100109285007A
:101260001092840000E010E0C1E0D0E0E12CF12C0D
:10127000CC24C394D12C8AD8CD2B31F060EC72E011
:1012800081E00E94F6003DC0813451F40E94D300F9
:101290008BDE8FEFC9D880E0E7D8CC2DDD2DEBCFEA
:1012A000823451F40E94D300A7DE8FEFBDD880E0D6
:1012B000DBD8CC2DDD2DDFCF833441F40E94D30069
:1012C0006EED72E081E00E94F60005C08434C9F43E
:1012D0000E94D3000AC00E945E0158D88A32D9F712
:1012E0000E94D300CC2DDD2DC6CFAEDE8FEF9CD873
:1012F00080E0BAD80E94D3000E2D1F2DCC2DDD2DFD
:10130000BACF0115110589F7CE2DDF2DB4CF0F927D
:101310000FB6F8940F921F9211242F923F924F9282
:101320005F926F927F928F929F92AF92BF92CF9275
:10133000DF92EF92FF920F931F932F933F934F9360
:101340005F936F937F938F939F93AF93BF93CF934D
:10135000DF93EF93FF93A0913103B09132030DB669
:101360000D920EB60D922ED0F1D0A0913103B09116
:101370003203CD91CDBFDD91DEBFFF91EF91DF91C3
:10138000CF91BF91AF919F918F917F916F915F911D
:101390004F913F912F911F910F91FF90EF90DF9010
:1013A000CF90BF90AF909F908F907F906F905F9005
:1013B0004F903F902F901F900F900FBE0F90089569
:1013C000A6DF18950F931F93CF93DF9380910503AA
:1013D0008111B2C080910703909108030196909308
:1013E0000803809307038091070390910803892BDA
:1013F00099F580910B0390910C0320910903309192
:101400000A0330930C0320930B0390930A038093F9
:101410000903809102038F5F80930203E0910B0325
:10142000F0910C038081811107C08FEF9FEF9093A3
:1014300005018093040110C0E0910B03F0910C03AF
:101440000580F681E02D0680F781E02D8281938171
:1014500090930501809304012091070330910803C4
:1014600080910401909105012817390708F469C09B
:10147000E0910B03F0910C038081882399F0E091B7
:101480000B03F0910C030580F681E02DC681D78116
:101490008A819B812091070330910803281739071F
:1014A000F8F419C08FEF9FEF90930501809304012A
:1014B00048C0E0910B03F0910C030580F681E02D0C
:1014C000C681D7818A819B812091070330910803CF
:1014D0002817390728F4909305018093040131C03F
:1014E0008E010E5F1F4FC8010E948D008C899D895F
:1014F000892B21F0CE010C960E948D008E8990914F
:101500000603981710F48093060390E09C01220FC5
:10151000331F220F331F220F331F820F931FB80177
:10152000835F9C4F0E946600E0910B03F0910C03D7
:1015300080818111BECFB6CF809104038F5F8093ED
:101540000403DF91CF911F910F91089580910503BE
:10155000811113C08091060390E0FC01EE0FFF1F84
:10156000EE0FFF1FEE0FFF1F8E0F9F1FFC01E35FAB
:10157000FC4F8081882329F01BC081E08093030306
:10158000089580910603815080930603809106039D
:1015900090E0FC01EE0FFF1FEE0FFF1FEE0FFF1F8D
:1015A0008E0F9F1FFC01E35FFC4F8081882349F36E
:1015B000E0910603F0E0CF01880F991F880F991F73
:1015C000880F991FE80FF91FE35FFC4FA181B281DB
:1015D00012960D90BC91A02DB283A183CF010396EA
:1015E000A817B90731F412968D919C9113979283A5
:1015F00081830180F281E02D86819781909332036F
:101600008093310308950CD0EBC0E3D040F0DAD0E2
:1016100030F021F45F3F19F0CCC0511115C1CFC09B
:10162000F0D098F39923C9F35523B1F3951B550BCB
:10163000BB27AA2762177307840738F09F5F5F4FA5
:10164000220F331F441FAA1FA9F333D00E2E3AF0E6
:10165000E0E830D091505040E695001CCAF729D000
:10166000FE2F27D0660F771F881FBB1F261737074F
:101670004807AB07B0E809F0BB0B802DBF01FF277F
:1016800093585F4F2AF09E3F510568F092C0DCC02E
:101690005F3FECF3983EDCF3869577956795B795B9
:1016A000F7959F5FC9F7880F911D9695879597F9D4
:1016B0000895E1E0660F771F881FBB1F621773074D
:1016C0008407BA0720F0621B730B840BBA0BEE1F62
:1016D00088F7E095089504D06894B111B5C00895D5
:1016E00098D088F09F5790F0B92F9927B751A0F064
:1016F000D1F0660F771F881F991F1AF0BA95C9F7A6
:1017000012C0B13081F09FD0B1E008959CC0672F26
:10171000782F8827B85F39F0B93FCCF38695779555
:101720006795B395D9F73EF490958095709561953E
:101730007F4F8F4F9F4F0895E89409C097FB3EF469
:1017400090958095709561957F4F8F4F9F4F99230E
:10175000A9F0F92F96E9BB279395F695879577958C
:101760006795B795F111F8CFFAF4BB0F11F460FF4C
:101770001BC06F5F7F4F8F4F9F4F16C0882311F0A4
:1017800096E911C0772321F09EE8872F762F05C0B8
:10179000662371F096E8862F70E060E02AF09A9553
:1017A000660F771F881FDAF7880F9695879597F948
:1017B000089597F99F6780E870E060E008959FEFD3
:1017C00080EC089500240A941616170618060906D8
:1017D000089500240A9412161306140605060895A7
:1017E000092E0394000C11F4882352F0BB0F40F42F
:1017F000BF2B11F460FF04C06F5F7F4F8F4F9F4F6F
:10180000089557FD9058440F551F59F05F3F71F0F0
:101810004795880F97FB991F61F09F3F79F0879557
:101820000895121613061406551FF2CF4695F1DFE0
:1018300008C0161617061806991FF1CF8695710570
:10184000610508940895E894BB2766277727CB01A4
:1018500097F90895BB274A3031F4992322F4BDE269
:10186000909581959F4F01C0BB27FB015527AA2763
:10187000880F991FAA1FA41710F0A41B839550511D
:10188000B9F7A05DAA3308F0A95DA193009779F795
:10189000B111B1931192CB0100C0DC01FC01672FA3
:1018A00071917723E1F7329704C07C916D93708337
:0E18B0006291AE17BF07C8F30895F894FFCFFA
:1018BE0026000A00FFFF636D0048323020416D6F35
:1018CE00756E74204C6F773A314D65643A3220460E
:1018DE00756C6C3A3300416464696E6720536D61B8
:1018EE006C6C20202020416D6F756E74206F662009
:1018FE00576174657200416464696E67204D65645A
:10190E0069756D202020416D6F756E74206F662095
:10191E00576174657200416464696E67204D617829
:10192E00696D756D2020416D6F756E74206F662028
:10193E0057617465720048323020416D6F756E7458
:10194E00204C6F773A344D65643A352046756C6C91
:10195E003A360052656D6F76696E6720536D616C15
:10196E006C2020416D6F756E74206F662057617408
:10197E0065720052656D6F76696E67204D6564699C
:10198E00756D20416D6F756E74206F662057617492
:10199E0065720052656D6F76696E67204D6178696C
:1019AE006D756D416D6F756E74206F662057617425
:1019BE00657200486F77206D756368207761746576
:1019CE00722020746F2070756D703F206D61783AB3
:1019DE00333600546F6F204D75636820456E746505
:1019EE007265646D61782831293A333600546F6F11
:1019FE00204D75636820456E74657265646D6178FF
:101A0E002832293A333600413A6164642077617492
:101A1E0065722020202020423A72656D6F76652017
:101A2E00776174657200486F77206D7563682077F3
:101A3E00617465722020746F2070756D70323F2056
:101A4E006D61783A333600456E7465726564206157
:101A5E006D6F756E743A2020004C69717569642043
:101A6E004C6576656C2020202053656E736F720076
:101A7E004144443A412052656D6F76653A422020CA
:101A8E00483230204C6576656C3A432C44004469EC
:101A9E007374616E636520746F202020202077613F
:0C1AAE0074657220696E20636D3A0000C0
:00000001FF
