S00C0000313232412E7372656342
S113000045C0000022C100005FC000005DC00000C8
S11300105BC0000059C0000057C0000055C000007C
S113002053C0000051C000004FC000004DC000008C
S11300304BC000000BC6000047C0000045C00000D4
S113004043C0000041C000003FC000003DC00000AC
S11300503BC0000039C0000037C0000035C00000BC
S113006033C0000031C000002FC000002DC00000CC
S11300702BC0000029C0000027C0000025C00000DC
S113008023C0000021C000001FC0000011241FBEB7
S1130090CFEFD0E4DEBFCDBF12E0A0E0B1E0E4E4F6
S11300A0F1E100E00BBF02C007900D92A435B10747
S11300B0D9F722E0A4E5B2E001C01D92A23AB2074A
S11300C0E1F718D50C94A0089BCFCF93DF93FC01E4
S11300D0DB0121813281E9018A819B8113969C9302
S11300E08E9312978181928115969C938E93149787
S11300F08A819B81EC017D836C83E9017B836A8324
S1130100728361831996FC93EE93189780818F5FB5
S11301108083DF91CF910895FC01A281B381848112
S1130120958115969C938E931497A481B5818281B1
S1130130938113969C938E931297A085B185119603
S11301408D919C9112978E179F0731F4848195812C
S113015012969C938E931197118610868C918150E0
S11301608C930895181619069CF440E050E077E04B
S113017063E00BC000002150310921153105D1F78E
S11301804F5F5F4F4817590719F0272F362FF2CFCB
S113019008952A9882B9299A0000299882E090E06B
S11301A0E1CF089581E0F5CF089584E690E0DADFA9
S11301B088E3EFDF86E0EDDF8FE0EBDF81E0E9DF6E
S11301C08AE090E0CFCF08952A9A82B9299A000054
S11301D0299881E090E0C6CF0895813118F48158C0
S11301E0D8CF08958155D5CF08951F93CF93DF932A
S11301F0FB019081992359F0EB0111E0180FEDDF19
S11302008991E2DF8881882311F0812FF6CFDF9175
S1130210CF911F9108950F931F93CF93DF93182FBE
S1130220EB01C0DF8881882359F001E0010F812FA1
S1130230D4DF8991C9DF8881882311F0102FF5CF8D
S1130240DF91CF911F910F9108951F920F920FB6D6
S11302500F9211240BB60F928F939F93EF93FF93FA
S11302608091580290915902019789F4109281006B
S1130270E4E8F0E0808191819093570280935602E4
S11302801182108210925902109258020BC0E1E8B8
S1130290F0E080818160808381E090E09093590256
S11302A080935802FF91EF919F918F910F900BBE15
S11302B00F900FBE0F901F9018955B9A83E08A955C
S11302C0F1F700005B9860915602709157028827FD
S11302D077FD8095982F75D620E030E048E652E40B
S11302E0D5D53CD6DC01CB019093550280935402C2
S11302F04AE06FE872E0F1D6809154029091550281
S11303000A973CF4EFE8F2E0808190E390838183E4
S113031012826FE872E08DE168DF66E071E08FE1E0
S113032064DF84E18A95F1F708955B9A83E08A9506
S1130330F1F700005B98609156027091570288278C
S113034077FD8095982F3DD620E030E048E652E4D2
S11303509DD504D6709355026093540284E18A9526
S1130360F1F780915402909155020895E9E6F0E086
S1130370808181608083E89A789408958FEE88B9AB
S11303800000309B29C0319B29C0329B29C0339B7C
S113039029C08FED88B90000309B26C0319B26C050
S11303A0329B26C0339B26C08FEB88B90000309B5C
S11303B023C0319B23C0329B23C0339B23C08FE7D0
S11303C088B90000309B20C0319B20C0329B20C0E4
S11303D0339920C084E4089581E3089584E3089563
S11303E087E308958AE2089582E3089585E30895F2
S11303F088E3089580E3089583E3089586E30895E8
S113040089E3089583E2089581E4089582E40895D8
S113041083E4089580E0089520E030E070E890E0FF
S11304207BB95BB14BB14F7B4BB9452B4BB96BB12E
S1130430AC01022E02C0559547950A94E2F741702B
S1130440462B4BB95E9A2F5F3F4F2830310541F759
S113045080E28BB91BB8089520E030E070E890E0AA
S113046075B955B145B14F7B45B9452B45B965B112
S1130470AC01022E02C0559547950A94E2F74170EB
S1130480462B45B92E9A2F5F3F4F2830310541F74F
S113049080E285B915B808952F923F924F925F92EA
S11304A06F927F928F929F92AF92BF92CF92DF9280
S11304B0EF92FF920F931F93CF93DF9300D000D05E
S11304C0CDB7DEB76C01362E30DF209102013091BA
S11304D00301821B930B90938C0280938B02C114B3
S11304E0D10409F4A0C2E12CF12C612C712C00E0A0
S11304F010E01C821B82C982DA82412C512C0F2EFF
S1130500F0EAAF2EF2E0BF2EF02D0F2EFDE88F2E75
S1130510F2E09F2EF02D6894222427F82FDF809399
S11305209F028A3211F469807A8035B8FEDE209108
S1130530000130910101A901481B590BCA015093D4
S113054003014093020120918B0230918C024217E7
S1130550530749F050938C0240938B02042D152DC0
S11305604B825C820DC0EB81FC81329724F4023013
S1130570110524F405C04B825C8202C04B825C826C
S11305801816190664F02FEFF5012083E1EAF2E072
S11305902083F4011082EEE8F2E01082FFC184307F
S11305A0910564F42FEEF5012083E1EAF2E0208363
S11305B0F4012082EEE8F2E02082F0C18630910559
S11305C06CF42FEEF5012083E1EAF2E0208320ECC5
S11305D0F4012083EEE8F2E02083E0C18830910545
S11305E06CF42FEEF5012083E1EAF2E0208320EEA3
S11305F0F4012083EEE8F2E02083D0C18930910534
S11306006CF42FEEF5012083E1EAF2E0208320EF81
S1130610F4012083EEE8F2E02083C0C18A30910522
S11306206CF42FEEF5012083E1EAF2E0208328EF59
S1130630F4012083EEE8F2E02083B0C18B30910511
S11306406CF42FEEF5012083E1EAF2E0208328EF39
S1130650F4012083EEE8F2E02083A0C18C30910500
S11306606CF42FEEF5012083E1EAF2E020832CEF15
S1130670F4012083EEE8F2E0208390C18D309105EF
S11306806CF42FEEF5012083E1EAF2E020832EEFF3
S1130690F4012083EEE8F2E0208380C18E309105DE
S11306A06CF48FEEF5018083E1EAF2E080832FEFB2
S11306B0F4012083EEE8F2E0208382C18F309105BB
S11306C074F42FEEF501208327EFE1EAF2E02083B2
S11306D02FEFF4012083EEE8F2E0208262C1803142
S11306E091057CF42FEEF501208327EFE1EAF2E097
S11306F020832FEFF401208320ECEEE8F2E0208346
S113070050C1813191057CF42FEEF501208327EF50
S1130710E1EAF2E020832FEFF401208320EEEEE8FB
S1130720F2E020833EC1823191057CF42FEEF50185
S1130730208327EFE1EAF2E020832FEFF401208306
S113074020EFEEE8F2E020832CC1833191057CF4A4
S11307502FEEF501208327EFE1EAF2E020832FEF6B
S1130760F40120832CEFEEE8F2E020831AC18431F7
S113077091057CF42FEEF501208327EFE1EAF2E006
S113078020832FEFF40120832EEFEEE8F2E02083A4
S113079008C1853191056CF427EEF5012083E1EA67
S11307A0F2E020832FEFF4012083EEE8F2E02083CF
S11307B0F8C0863191057CF427EEF50120832BEFF8
S11307C0E1EAF2E020832FEFF401208320ECEEE84D
S11307D0F2E02083E6C0873191057CF427EEF50131
S11307E020832BEFE1EAF2E020832FEFF401208352
S11307F020EFEEE8F2E02083D4C0883191057CF448
S113080027EEF50120832BEFE1EAF2E020832FEFBE
S1130810F40120832CEFEEE8F2E02083C2C089319A
S113082091056CF423EEF5012083E1EAF2E02083E4
S11308302FEFF4012083EEE8F2E02083B2C08A3186
S113084091057CF423EEF50120832DEFE1EAF2E03B
S113085020832FEFF401208320ECEEE8F2E02083E4
S1130860A0C08B3191057CF423EEF50120832DEF9C
S1130870E1EAF2E020832FEFF401208320EFEEE899
S1130880F2E020838EC08C3191057CF423EEF501D7
S113089020832DEFE1EAF2E020832FEFF40120839F
S11308A02CEFEEE8F2E020837CC08D3191057CF4DE
S11308B023EEF50120832DEFE1EAF2E020832FEF10
S11308C0F40120832EEFEEE8F2E020836AC08E313B
S11308D091056CF421EEF5012083E1EAF2E0208336
S11308E02FEFF4012083EEE8F2E020835AC08F3129
S11308F0910574F421EEF50120832EEFE1EAF2E094
S113090020832FEFF4012083EEE8F2E0208249C037
S1130910803291057CF421EEF50120832EEFE1EA8B
S1130920F2E020832FEFF401208320ECEEE8F2E0E4
S1130930208337C0813291057CF421EEF5012083B8
S11309402EEFE1EAF2E020832FEFF401208320EF81
S1130950EEE8F2E0208325C0823291057CF421EE9A
S1130960F50120832EEFE1EAF2E020832FEFF4017A
S113097020832CEFEEE8F2E0208313C0853291054A
S11309800CF04EC0F5011082E1EAF2E010822FEF84
S1130990F4012083EEE8F2E0208303C08E30910559
S11309A07CF08F30910561F09C0123513109223094
S11309B0310530F08931910519F08197049738F4A5
S11309C0F501808129DDF401808146DD0BC0EB81D6
S11309D0FC81E056FD4F80811FDDF801E357FD4F98
S11309E080813ADDFAE0CF16D10419F02FEFE21A34
S11309F0F20A4B815C814F5F5F4F5C834B830F5FD7
S1130A001F4F50EDE51657E0F50629F48FEF681AED
S1130A10780AE42CF52CC614D70409F07FCD03C062
S1130A2069807A80BECF0F900F900F900F90DF9166
S1130A30CF911F910F91FF90EF90DF90CF90BF90D7
S1130A40AF909F908F907F906F905F904F903F906A
S1130A502F90089569E071E081E0C7DB8FDC81337A
S1130A6041F4A0DB66E271E081E0BFDB82E090E06C
S1130A7013C0823341F496DB66E471E081E0B5DBB8
S1130A8084E090E009C0833329F78CDB66E671E0EB
S1130A9081E0ABDB8AE090E068E070E0FDDC82DBC3
S1130AA015B8089566E871E081E09FDB67DC843364
S1130AB041F478DB63EA71E081E097DB81E090E068
S1130AC013C0853341F46EDB63EC71E081E08DDBB0
S1130AD082E090E009C0863329F764DB63EE71E0BD
S1130AE081E083DB83E090E060E170E0D5DC5ADBF9
S1130AF015B808958FEF81B984B98BEF8AB980EF67
S1130B0087B98FE088B951DB82E390E02BDB2EDCE0
S1130B1063E072E081E07FDB88EC90E023DB42DB82
S1130B20109281001092850010928400C1E0D0E000
S1130B3000E010E0EE24E394F12C20DCCD2B29F02E
S1130B406AE172E081E051DB25C0813449F42ADB9B
S1130B5081DF8FEF61DC80E07FDCCE2DDF2DEDCFF8
S1130B60823449F41FDB9EDF8FEF56DC80E074DCB7
S1130B70CE2DDF2DE2CF833469F414DB66E372E01B
S1130B8081E033DB9ADBFADB8A32E1F70BDBCE2D33
S1130B90DF2DD3CFC02FD12FD0CF0F920FB6F89423
S1130BA00F921F9211242F923F924F925F926F9255
S1130BB07F928F929F92AF92BF92CF92DF92EF92E9
S1130BC0FF920F931F932F933F934F935F936F93D2
S1130BD07F938F939F93AF93BF93CF93DF93EF93C1
S1130BE0FF93A0918902B0918A020DB60D920EB6C0
S1130BF00D922ED0EED0A0918902B0918A02CD91AF
S1130C00CDBFDD91DEBFFF91EF91DF91CF91BF9119
S1130C10AF919F918F917F916F915F914F913F9190
S1130C202F911F910F91FF90EF90DF90CF90BF9085
S1130C30AF909F908F907F906F905F904F903F9078
S1130C402F901F900F900FBE0F900895A6DF189558
S1130C500F931F93CF93DF9380915D028111AFC0F7
S1130C6080915F029091600201969093600280935C
S1130C705F0280915F0290916002892B99F58091C7
S1130C806302909164022091610230916202309378
S1130C9064022093630290936202809361028091C4
S1130CA05A028F5F80935A02E0916302F0916402CA
S1130CB08081811107C08FEF9FEF9093050180938E
S1130CC0040110C0E0916302F09164020580F68192
S1130CD0E02D0680F781E02D8281938190930501B8
S1130CE08093040120915F0230916002809104019D
S1130CF0909105012817390708F466C0E091630252
S1130D00F09164028081882399F0E0916302F0916C
S1130D1064020580F681E02DC681D7818A819B819A
S1130D2020915F023091600228173907F8F419C046
S1130D308FEF9FEF909305018093040145C0E091EC
S1130D406302F09164020580F681E02DC681D781AB
S1130D508A819B8120915F023091600228173907B4
S1130D6028F490930501809304012EC08E010E5F38
S1130D701F4FC801D1D98C899D89892B19F0CE01C7
S1130D800C96CAD98E8990915E02981710F48093BC
S1130D905E0290E09C01220F331F220F331F220FAB
S1130DA0331F820F931FB8018B599D4F8ED9E09149
S1130DB06302F091640280818111C1CFB9CF809127
S1130DC05C028F5F80935C02DF91CF911F910F9142
S1130DD0089580915D02811113C080915E0290E0BC
S1130DE0FC01EE0FFF1FEE0FFF1FEE0FFF1F8E0F14
S1130DF09F1FFC01EB59FD4F8081882329F01BC004
S1130E0081E080935B02089580915E02815080931B
S1130E105E0280915E0290E0FC01EE0FFF1FEE0F78
S1130E20FF1FEE0FFF1F8E0F9F1FFC01EB59FD4F9D
S1130E308081882349F3E0915E02F0E0CF01880FBE
S1130E40991F880F991F880F991FE80FF91FEB59F5
S1130E50FD4FA181B28112960D90BC91A02DB28359
S1130E60A183CF010396A817B90731F412968D9187
S1130E709C911397928381830180F281E02D868176
S1130E80978190938A028093890208950CD0EBC0D5
S1130E90E3D040F0DAD030F021F45F3F19F0CCC059
S1130EA0511115C1CFC0F0D098F39923C9F355233C
S1130EB0B1F3951B550BBB27AA2762177307840749
S1130EC038F09F5F5F4F220F331F441FAA1FA9F3FF
S1130ED033D00E2E3AF0E0E830D091505040E695F1
S1130EE0001CCAF729D0FE2F27D0660F771F881F52
S1130EF0BB1F261737074807AB07B0E809F0BB0B41
S1130F00802DBF01FF2793585F4F2AF09E3F510564
S1130F1068F092C0DCC05F3FECF3983EDCF386954A
S1130F2077956795B795F7959F5FC9F7880F911DDA
S1130F309695879597F90895E1E0660F771F881FC6
S1130F40BB1F621773078407BA0720F0621B730B79
S1130F50840BBA0BEE1F88F7E095089504D06894CB
S1130F60B111B5C0089598D088F09F5790F0B92F6B
S1130F709927B751A0F0D1F0660F771F881F991FEA
S1130F801AF0BA95C9F712C0B13081F09FD0B1E020
S1130F9008959CC0672F782F8827B85F39F0B93F30
S1130FA0CCF3869577956795B395D9F73EF49095EC
S1130FB08095709561957F4F8F4F9F4F0895E8946A
S1130FC009C097FB3EF490958095709561957F4F8D
S1130FD08F4F9F4F9923A9F0F92F96E9BB2793953B
S1130FE0F695879577956795B795F111F8CFFAF44B
S1130FF0BB0F11F460FF1BC06F5F7F4F8F4F9F4F7C
S113100016C0882311F096E911C0772321F09EE8D9
S1131010872F762F05C0662371F096E8862F70E03F
S113102060E02AF09A95660F771F881FDAF7880F19
S11310309695879597F9089597F99F6780E870E0EA
S113104060E008959FEF80EC089500240A9416163A
S1131050170618060906089500240A9412161306A2
S1131060140605060895092E0394000C11F4882330
S113107052F0BB0F40F4BF2B11F460FF04C06F5F4C
S11310807F4F8F4F9F4F089557FD9058440F551F22
S113109059F05F3F71F04795880F97FB991F61F0F6
S11310A09F3F79F087950895121613061406551F6D
S11310B0F2CF4695F1DF08C0161617061806991FD9
S11310C0F1CF86957105610508940895E894BB27CE
S11310D066277727CB0197F90895BB274A3031F467
S11310E0992322F4BDE2909581959F4F01C0BB27BF
S11310F0FB015527AA27880F991FAA1FA41710F0D0
S1131100A41B83955051B9F7A05DAA3308F0A95DDB
S1131110A193009779F7B111B1931192CB0100C05B
S1131120DC01FC01672F71917723E1F7329704C04A
S11311307C916D9370836291AE17BF07C8F30895D5
S1071140F894FFCF4D
S113114426000A00FFFF636D0048323020416D6FB2
S1131154756E74204C6F773A314D65643A3220468B
S1131164756C6C3A3300416464696E6720536D6135
S11311746C6C20202020416D6F756E74206F662086
S1131184576174657200416464696E67204D6564D7
S113119469756D202020416D6F756E74206F662013
S11311A4576174657200416464696E67204D6178A7
S11311B4696D756D2020416D6F756E74206F6620A6
S11311C457617465720048323020416D6F756E74D6
S11311D4204C6F773A344D65643A352046756C6C0F
S11311E43A360052656D6F76696E6720536D616C93
S11311F46C2020416D6F756E74206F662057617486
S113120465720052656D6F76696E67204D65646919
S1131214756D20416D6F756E74206F66205761740F
S113122465720052656D6F76696E67204D617869E9
S11312346D756D416D6F756E74206F6620576174A2
S11312446572004C6971756964204C6576656C201F
S113125420202053656E736F72004144443A412048
S113126452656D6F76653A422020483230204C65D1
S113127476656C3A430044697374616E63652074E3
S11312846F2020202020776174657220696E2063AA
S10712946D3A0000AB
S9030000FC
